:020000040800F2
:1000000000800120A52A0008B9290008BB290008A2
:10001000BD290008BF290008C12900080000000010
:10002000000000000000000000000000C3290008DC
:10003000C529000800000000C7290008C9290008D8
:10004000F52A0008F52A0008F52A0008F52A000814
:10005000F52A0008CD290008F52A0008F52A00082D
:10006000F52A0008F52A0008F52A0008F52A0008F4
:10007000F52A0008F52A0008F52A0008F52A0008E4
:10008000F52A0008F52A0008F52A000800000000FB
:10009000000000000000000000000000CF29000860
:1000A000F52A0008F52A0008F52A0008F52A0008B4
:1000B000F52A0008F52A0008F52A0008F52A0008A4
:1000C000F52A0008F52A0008F52A0008D9290008B1
:1000D000F52A0008F52A0008E529000800000000BC
:1000E000F52A0008F52A0008F52A0008000000009B
:1000F000000000000000000000000000F52A0008D9
:1001000000000000F52A0008F52A0008F52A00087A
:1001100000000000000000000000000000000000DF
:10012000F52A0008F52A0008F52A0008F52A000833
:10013000F52A000800000000000000000000000098
:10014000000000000000000000000000F52A000888
:10015000F52A0008F52A0008F52A0008F52A000803
:10016000F52A0008F52A0008000000000000000041
:10017000000000000000000000000000000000007F
:1001800000000000F52A0008000000000000000048
:04019000F52A000844
:1001A00010B5054C237833B9044B13B10448AFF3B1
:1001B00000800123237010BDFC010020000000001E
:1001C000283E000808B5034B1BB103490348AFF3B1
:1001D000008008BD0000000000020020283E00084A
:1001E000034613F8012B002AFBD1181A0138704777
:1001F00001F0FF01102A2BDB10F0070F08D010F8D8
:10020000013B013A8B422DD010F0070F42B3F6D1DB
:10021000F0B441EA012141EA014122F007047FF0F4
:1002200000070023F0E80256083C85EA010586EA4B
:10023000010685FA47F5A3FA87F586FA47F6A5FA87
:1002400087F68EB9EED1F0BC01F0FF0102F0070293
:1002500032B110F8013B013A83EA010313B1F8D13E
:100260000020704701387047002D06BF354603381F
:10027000073815F0010F07D1013015F4807F02BF58
:10028000013015F4C03F0130F0BC0138704700BFA9
:1002900053B94AB9002908BF00281CBF4FF0FF31ED
:1002A0004FF0FF3000F07AB9ADF1080C6DE904CEE3
:1002B00000F006F8DDF804E0DDE9022304B0704741
:1002C0002DE9F0478C460D460446089E002B51D17F
:1002D0008A4217466DD9B2FA82FEBEF1000F0BD0EA
:1002E000CEF1200C01FA0EF520FA0CFC02FA0EF702
:1002F0004CEA050C00FA0EF44FEA174A250CBCFB39
:10030000FAF81FFA87F90AFB18CC45EA0C4508FBF6
:1003100009F3AB420AD9ED1908F1FF3280F02381CD
:10032000AB4240F22081A8F102083D44ED1AA4B28C
:10033000B5FBFAF00AFB105544EA054400FB09F945
:10034000A14509D9E41900F1FF3380F00A81A145E4
:1003500040F2078102383C44A4EB090440EA08401B
:100360000021002E61D024FA0EF400233460736063
:10037000BDE8F0878B4207D9002E54D0002186E8D3
:1003800021000846BDE8F087B3FA83F1002940F068
:100390008E80AB4202D3824200F2FA80841A65EB6F
:1003A00003050120AC46002E3FD086E81010BDE8C2
:1003B000F08712B90127B7FBF2F7B7FA87FEBEF153
:1003C000000F34D1EB1B3A0C1FFA87FC0121B3FB61
:1003D000F2F8250C02FB183345EA03450CFB08F341
:1003E000AB4207D9ED1908F1FF3002D2AB4200F25F
:1003F000D1808046ED1AA3B2B5FBF2F002FB105596
:1004000043EA05440CFB00FCA44507D9E41900F1BC
:10041000FF3302D2A44500F2B8801846A4EB0C04C6
:1004200040EA08409DE731463046BDE8F087CEF10E
:10043000200405FA0EF307FA0EF720FA04F83A0C36
:1004400025FA04F448EA0308B4FBF2F14FEA184530
:1004500002FB11441FFA87FC45EA044501FB0CF33B
:10046000AB4200FA0EF409D9ED1901F1FF3080F02A
:100470008A80AB4240F2878002393D44EB1A1FFA72
:1004800088F5B3FBF2F002FB103345EA034500FBAD
:100490000CF3AB4207D9ED1900F1FF386FD2AB4234
:1004A0006DD902383D44EB1A40EA01418FE7C1F1B2
:1004B000200722FA07F88B4005FA01F448EA030303
:1004C00020FA07FE4FEA134CFD404EEA040EB5FB3E
:1004D000FCF94FEA1E440CFB19551FFA83F844EA55
:1004E000054509FB08F4AC4202FA01F200FA01FAF0
:1004F00008D9ED1809F1FF3043D2AC4241D9A9F136
:1005000002091D442D1B1FFA8EFEB5FBFCF00CFBEF
:1005100010554EEA054400FB08F8A04507D9E41839
:1005200000F1FF3529D2A04527D902381C4440EA02
:100530000940A4EB0804A0FB02894C45C6464D4681
:1005400015D312D056B1BAEB0E0364EB050404FACE
:1005500007F7CB401F43CC40376074600021BDE8F3
:10056000F0871846F8E69046E0E6C245EAD2B8EBD6
:10057000020E69EB03050138E4E72846D7E7404659
:1005800091E78146BEE7014678E702383C4445E7FB
:10059000084608E7A8F102083D442BE7704700BF72
:1005A00038B50E4A0E4B054618784FF47A73B3FBF4
:1005B000F0F31068B0FBF3F000F096F8044658B979
:1005C0000F2D09D8024629464FF0FF3000F04AF8B7
:1005D000044B20461D6038BD012038BD2800002096
:1005E000000000200400002008B50B4B1A6842F4FC
:1005F00000721A601A6842F480621A601A6842F443
:1006000080721A60032000F01BF80020FFF7C8FF7B
:1006100002F032F9002008BD003C0240034A044BBE
:1006200011681B780B441360704700BF3C04002026
:1006300000000020014B1868704700BF3C040020F8
:10064000074AD36823F4E0631B041B0C43F0BF6329
:10065000000243F4003300F4E0600343D3607047CA
:1006600000ED00E0174B30B5DC68C4F30224C4F1A0
:100670000703251D042B28BF0423062D4FF0010579
:1006800005FA03F303F1FF338CBF033C0024194048
:10069000A14005FA04F4013C2240002842EA01028C
:1006A0004FEA0212ADBF00F1604000F00F00064BB0
:1006B00000F56140B5BFD2B2D2B21A5480F800231F
:1006C00030BD00BF00ED00E014ED00E0002808DBC5
:1006D0004209012300F01F0003FA00F0014B43F828
:1006E0002200704700E100E00138B0F1807F0AD2BB
:1006F000064B074A5860F02182F823100020072299
:1007000098601A6070470120704700BF10E000E059
:1007100000ED00E090F83530022B03D080234365D4
:10072000012070470268052380F83530136823F0F4
:1007300001031360002070472DE9F04F85B00B686E
:10074000DFF89C81644A01934FF001090023019C6A
:1007500009FA03F707EA0406B74240F0AD804C6897
:1007600024F0100ABAF1020F16D14FEAD30C00EBB5
:100770008C0C03F0070BDCF820504FEA8B0B4FF08A
:100780000F0E0EFA0BFE25EA0E0E0D6905FA0BF59B
:1007900045EA0E05CCF820504FEA430C0325D0F86B
:1007A00000B005FA0CF5ED4304F0030E0BEA050B5F
:1007B0000EFA0CFE0AF1FF3A4EEA0B0EBAF1010FE7
:1007C0000095C0F800E015D8D0F808E005EA0E0E54
:1007D000CD6805FA0CFA4AEA0E0EC0F808E0D0F827
:1007E00004E02EEA0707C4F3001E0EFA03FE4EEAE9
:1007F00007074760C768009D3D408F6807FA0CF700
:100800003D43C560E50057D54FF0000BCDF80CB067
:10081000D8F84470314D47F48047C8F84470D8F890
:10082000447007F480470397039F23F0030707F101
:10083000804707F59C3703F0030CD7F808A04FEA70
:100840008C0C4FF00F0E0EFA0CFEA8422AEA0E0E88
:1008500039D005F58065A84237D005F58065A842F6
:1008600035D005F58065A84233D005F58065A842EE
:1008700014BF0725042505FA0CF545EA0E05BD60F1
:100880001568F74314F4803F0CBF3D4035431560B5
:10089000556814F4003F0CBF3D40354355609568E2
:1008A00014F4801F0CBF3D4035439560D568A40209
:1008B00054BF3D403543D5600133102B7FF447AF23
:1008C00005B0BDE8F08F5D46D5E70125D3E70225E9
:1008D000D1E70325CFE700BF003C01400000024004
:1008E000003802400369194214BF012000207047FC
:1008F0000AB1816170470904FBE7000008B5044BA9
:100900005969014202D0586101F0C2FB08BD00BF25
:10091000003C01402DE9F341044618B9012002B022
:10092000BDE8F0810368DD0710D42368980758D428
:1009300023681A0700F19A8023685B0700F1B880EA
:10094000A269002A40F019810020E8E7A64B9A68C6
:1009500002F00C02042A07D09A6802F00C02082A5E
:100960000AD15B68590207D59F4B1B689A03DCD5F7
:100970006368002BD9D1D1E763689B4DB3F5803F05
:1009800011D12B6843F480332B60FFF753FE964D53
:1009900006462B689B03C8D4FFF74CFE801B6428D7
:1009A000F7D90320BBE7B3F5A02F04D12B6843F49C
:1009B00080232B60E5E72A6822F480322A602A68C7
:1009C00022F480222A60002BDFD1FFF733FE064697
:1009D0002B689F03A9D5FFF72DFE801B6428F7D94C
:1009E000DFE7814B9A6812F00C0F07D09A6802F08B
:1009F0000C02082A11D15B685E020ED47A4B1A6889
:100A0000950702D5E268012A88D11A68216922F087
:100A1000F80242EAC1021A608AE7E268734BB2B197
:100A200001221A60FFF706FE6F4D06462B689807F5
:100A300007D52B68226923F0F80343EAC2032B6031
:100A400076E7FFF7F7FD801B0228EFD9A9E71A60C8
:100A5000FFF7F0FD644D06462B6899077FF568AFF8
:100A6000FFF7E8FD801B0228F6D99AE76269604B20
:100A70007AB101221A60FFF7DDFD5B4D06466B6F10
:100A80009F073FF559AFFFF7D5FD801B0228F6D928
:100A900087E71A60FFF7CEFD534D06466B6F980748
:100AA0007FF54AAFFFF7C6FD801B0228F6D978E72D
:100AB0004D4B1A6C12F0805228D101921A6C42F000
:100AC00080521A641B6C03F080530193019B012632
:100AD000484D2B68D9051BD5A368434D012B27D161
:100AE0002B6F43F001032B67FFF7A4FD3E4D074634
:100AF00041F288382B6F9B0739D5002E3FF420AF89
:100B0000394A136C23F08053136419E70026DFE79A
:100B10002B6843F480732B60FFF78CFD07462B682E
:100B2000DA05D9D4FFF786FDC01B0228F7D938E7CC
:100B3000052B04D12B6F43F004032B67D0E72A6FFA
:100B400022F001022A672A6F22F004022A67002B92
:100B5000CAD1FFF76FFD41F2883807462B6F98071F
:100B6000CBD5FFF767FDC01B4045F7D919E7FFF765
:100B700061FDC01B4045BDD913E71B4DAB6803F0B9
:100B80000C03082B3FF4CAAE1B4E0023022A33602D
:100B900034D1FFF74FFD07462B6899011ED4226A16
:100BA000E3691343626A43EA8213E26A43EA026337
:100BB000A26A0D4C5208013A43EA02436B600123DA
:100BC0003360FFF737FD054623689A013FF5BCAE59
:100BD000FFF730FD401B0228F6D9E2E6FFF72AFDB9
:100BE000C01B0228D8D9DCE600380240000047428A
:100BF000800E47420070004060004742FFF71AFD38
:100C000004462B689B017FF59FAEFFF713FD001B89
:100C10000228F6D9C5E600BF134908B58B6803F072
:100C20000C03042B03D0082B03D0104808BD104838
:100C300008BD4A684B68496813F4800314BF0C4828
:100C40000A48C1F3881118BF002302F03F02A1FB3C
:100C50000001FFF71DFB044B5B68C3F30143013345
:100C60005B00B0FBF3F008BD003802400024F40044
:100C700000127A002DE9F0410D46044610B901201A
:100C8000BDE8F081444B1A6802F00F028A4228D373
:100C900021688F072DD4C80740D43F4B1A6802F053
:100CA0000F02954266D3226851076CD4130707D50B
:100CB0003A4A2169936823F4604343EAC10393608D
:100CC000FFF7AAFF354B364A9B68C3F30313D35C87
:100CD000D840344B18600020FFF762FC0020BDE8CC
:100CE000F081CAB21A701B6803F00F039942C6D193
:100CF000CEE72A4B11F0040F1EBF9A6842F4E0526F
:100D00009A600E0742BF9A6842F460429A609A68FD
:100D1000A06822F0F00202439A60BCE762681F4BB1
:100D2000012A1DD11B6813F4003FA8D01B4EB368E5
:100D300023F003031343B360FFF77CFC41F28838D0
:100D40000746B368626803F00C03B3EB820FA4D0CC
:100D5000FFF770FCC01B4045F3D90320BDE8F081CC
:100D6000911E01291B6802D813F0007FDDE713F004
:100D7000020FDAE7EAB21A701B6803F00F039D4214
:100D80007FF47DAF8FE70549E0688B6823F4E0537B
:100D900003438B608AE700BF003C024000380240FA
:100DA0005A48000828000020044B054A9B68C3F3FA
:100DB0008223D35C034A1068D84070470038024051
:100DC0006A48000828000020044B054A9B68C3F3CA
:100DD0004233D35C034A1068D84070470038024061
:100DE0006A48000828000020F8B504460E4615465B
:100DF0001F4621688A6836EA020301D00020F8BD48
:100E00006B1CF7D0FFF716FCC01B8542F1D8236896
:100E10005A6822F0E0025A606268B2F5827F0AD115
:100E2000A268B2F5004F02D0B2F5806F03D11A6804
:100E300022F040021A60A26AB2F5005F07D11A6878
:100E400022F400521A601A6842F400521A60012318
:100E500084F85130002384F850300320F8BD00009E
:100E600073B51346134A144E15684268B5FBF6F67F
:100E70004FF47A757543B2F5827F044601950DD122
:100E80000A468021FFF7B0FF10B9002002B070BD04
:100E9000636D43F0200363650320F7E7019B002B9C
:100EA000F3D0019B013B019323689B681B06F5D49B
:100EB000EBE700BF2800002000366E0110B50446A5
:100EC000002836D00023836290F8513003F0FF02EF
:100ED0001BB980F8502001F0F5FC2168A068A269D8
:100EE000022384F851300B6823F040030B606368E1
:100EF0000343E06803432069034360690343E069F7
:100F00000343206A0343A06A034302F400700343CF
:100F10000B60120C636A02F004021A434A60CB6948
:100F200023F40063CB6100200123606584F8513015
:100F300010BD012010BD2DE9F7431E4690F850303A
:100F40000A9F012B04460D46914600F0E2800123E2
:100F500080F85030FFF76EFB94F851306168DBB2D7
:100F6000012B80460AD0B1F5827F40F0D080A06886
:100F7000002840F0CC80042B40F0C980002D00F008
:100F8000C480B9F1000F00F0C080002E00F0BD80D9
:100F900094F85130C4F83890042B1CBF052384F812
:100FA000513000236365236463642368E687E68623
:100FB0001A68A687500658BF1A68256358BF42F0C2
:100FC0004002A68658BF1A60E268B2F5006F58D199
:100FD00009B1012E07D135F8022BDA60E38E2563C3
:100FE000013B9BB2E3860125E38E9BB2ABB9E38F55
:100FF0009BB293B9424639462046FFF731FF00289D
:1010000040F08180A368002B32D123680190DA6818
:1010100001929B680193019B2AE0226893689907DB
:101020000DD5E38E9BB253B14DB1236B33F8021B48
:10103000D1602363E38E013B9BB2E3860025936876
:10104000DB070CD5E38F9BB24BB1A36BD26823F8BF
:10105000022BA363E38F013B9BB2E3870125FFF7DC
:10106000E9FAA0EB08008742BED87E1CBCD0032062
:10107000012384F85130002384F8503003B0BDE8D8
:10108000F08309B1012E08D12A781A73236B01333A
:101090002363E38E013B9BB2E3860125E38E9BB283
:1010A0001BB9E38F9BB2002BA4D0226893689807EA
:1010B0000ED5E38E9BB25BB155B1236B1B781373D6
:1010C000236B01332363E38E013B9BB2E386002550
:1010D00022689368D9070DD5E38F9BB253B1A36BF8
:1010E000D2681A70A36B0133A363E38F013B9BB2F9
:1010F000E3870125FFF79EFAA0EB08008742CDD8D1
:101100007B1CCBD0B3E7202363650120B0E702202E
:10111000AEE70220B2E77047036830B559689A68B5
:1011200002F04105012D85B0044605D14D0603D5D9
:10113000036C984705B030BD950704D5080602D565
:10114000636C2046F5E712F4B07FF3D08D06F1D53D
:1011500050060FD594F8510003284FF000054CD0ED
:10116000606D40F0040060650095D8680090986854
:101170000090009895060CD5606D40F00100606508
:101180000020029098680290186820F040001860D3
:101190000298D00508D5626D42F00802626500220F
:1011A00003929A680392039A626D002AC2D05A6829
:1011B00022F0E0025A60012284F851208A0723D0ED
:1011C0005A68E06C22F003025A6040B1104B03658C
:1011D000FFF7A0FA18B1636D43F040036365A06C9C
:1011E0000028A7D00A4B0365FFF794FA0028A1D086
:1011F000636D43F0400363659CE70195DA680192F3
:101200009B680193019B95E72046FFF784FF91E7D8
:101210001512000808B5806B0023C387C386FFF74B
:101220007AFF08BD0368DA6822F49072DA605A69BE
:1012300022F001025A61202380F83A307047000002
:101240002DE9F0470668C2683369C16923F4405349
:1012500013433361044683680069F268034360699D
:1012600022F41642034322F00C020B431343F360B3
:101270007369A26923F440731343B1F5004F73619E
:101280007A4B7CD19E4203D003F580639E4244D1C9
:10129000FFF79AFD192505FB00F360684FF064091C
:1012A0004000B3FBF0F3B3FBF9F34FEA0318FFF789
:1012B0008BFD636868435B00B0FBF3F7FFF784FDC9
:1012C000636868435B00B0FBF3F3B3FBF9F309FB1E
:1012D0001373DB003233B3FBF9F35B0003F4F877ED
:1012E000FFF772FD626868435200B0FBF2FAFFF745
:1012F0006BFD636868435B00B0FBF3F3B3FBF9F38A
:1013000009FB13A3DB003233B3FBF9F303F007034C
:1013100043443B44B360BDE8F087FFF745FD192522
:1013200005FB00F360684FF064094000B3FBF0F385
:10133000B3FBF9F34FEA0318FFF736FD6368684320
:101340005B00B0FBF3F7FFF72FFD636868435B00BA
:10135000B0FBF3F3B3FBF9F309FB1373DB00323398
:10136000B3FBF9F35B0003F4F877FFF71DFD626848
:1013700068435200B0FBF2FAFFF716FDB9E79E4250
:1013800002D03B4B9E4240D1FFF71EFD67681925F6
:101390004FF0640905FB00F3BF00B3FBF7F3B3FBA9
:1013A000F9F31F01FFF710FD636868439B00B0FB72
:1013B000F3F8FFF709FD636868439B00B0FBF3F3A4
:1013C000B3FBF9F309FB13831B013233B3FBF9F3CE
:1013D00003F0F008FFF7F8FC626868439200B0FB86
:1013E000F2FAFFF7F1FC636868439B00B0FBF3F38C
:1013F000B3FBF9F309FB13A31B013233B3FBF9F37E
:1014000003F00F0343EA080383E7FFF7CDFC6768A7
:1014100019254FF0640905FB00F3BF00B3FBF7F398
:10142000B3FBF9F31F01FFF7BFFC636868439B0040
:10143000B0FBF3F8FFF7B8FC636868439B00B0FBB0
:10144000F3F3B3FBF9F309FB13831B013233B3FB53
:10145000F9F303F0F008FFF7A7FC62686843920015
:10146000B0FBF2FAFFF7A0FCBDE700BF001001409F
:1014700000140140F8B504460E4617461D46216883
:101480000B6836EA030301D10020F8BD6B1CF7D0CE
:1014900095B92368DA6822F4D072DA605A6922F0CA
:1014A00001025A61202384F8393084F83A3000234D
:1014B00084F838300320F8BDFFF7BCF8C01B854224
:1014C000DDD2E6E710B5044640B390F8393003F0BA
:1014D000FF021BB980F8382001F032FA2268242379
:1014E00084F83930D36823F40053D3602046FFF7E3
:1014F000A7FE23681A6922F490421A615A6922F001
:101500002A025A61DA6842F40052DA60002020238D
:10151000E06384F8393084F83A3010BD012010BD02
:101520002DE9F0411F4690F83930202B04460D4636
:1015300090464FD100294AD0002A48D090F8383040
:10154000012B47D0012380F838300023C3632123C7
:1015500080F83930FFF76EF8A4F824800646A4F826
:101560002680E38C9BB26BB93B4632464021204635
:10157000FFF780FFB0B9202384F8393084F83800B1
:10158000BDE8F081E38C013B9BB2E384A368B3F533
:10159000805F32463B464FF0800120460ED1FFF778
:1015A00069FF10B10320BDE8F0812B882268C3F3E6
:1015B00008035360236943B90235D2E7FFF75AFFA6
:1015C0000028EFD123682A785A600135C9E7012045
:1015D000BDE8F0810220BDE8F08190F83A30202B80
:1015E00020D1E9B1E2B190F83830012B1AD0C28590
:1015F000828500232222C36380F83A200268816238
:10160000D16880F8383041F48071D160516941F07F
:1016100001015161D16841F02001D1601846704745
:101620000120704702207047704790F83A30222B13
:1016300010B536D1836801690268B3F5805F836AAB
:1016400023D15268E9B9C2F3080223F8022B83625E
:10165000C48D013CA4B2C4858CB90368DA6822F059
:101660002002DA60DA6822F48072DA605A6922F0C5
:1016700001025A61202380F83A3000F0EBFC002090
:1016800010BDD2B223F8012BE1E721B9591C5268F1
:1016900081621A70DCE75268591C816202F07F0295
:1016A000F7E7022010BD704703681A68D96870B563
:1016B000160704465D6907D196065AD58D0658D59A
:1016C000BDE87040FFF7B1BF15F0010502D111F47C
:1016D000907F4ED0D30705D5CE0542BFE36B43F0D4
:1016E0000103E363500704D51DB1E36B43F002032C
:1016F000E363930704D51DB1E36B43F00403E36395
:10170000160704D51DB1E36B43F00803E363E36BF5
:10171000002B66D0950604D5880602D52046FFF733
:1017200084FF23685D69E26B1107204602D415F03F
:1017300040051AD0FFF776FD23685A69520610D586
:101740005A69606B22F040025A6150B1254B036523
:10175000FEF7E0FF002844D0606BBDE87040036DE9
:1017600018472046FFF79FFF70BDFFF79CFFE5631A
:1017700070BD160627D50D0625D594F83920212AE7
:101780002FD1A268B2F5805F226A17D11188C1F308
:1017900008015960216979B902322262E28C013A6A
:1017A00092B2E284EAB9DA6822F08002DA60DA689A
:1017B00042F04002DA6070BD0132EEE7511C216256
:1017C00012785A60EAE750060BD54A0609D5DA685E
:1017D00022F04002DA60202384F839302046FFF7F7
:1017E00023FF70BDE917000808B5806B0023C3858F
:1017F000C384FFF758FF08BD014B1878704700BF3E
:1018000040040020074A1388508840F2FE318B4282
:1018100003DDB0FA80F04009704701331B1A5842CB
:101820005841704742040020044B18885B88984256
:1018300038BF00F58060C01A80B2704742040020B3
:1018400038B5094C228840F2FE339A42C4BF0023C7
:1018500023800546FFF7D6FF20B923885A1C228033
:101860001C44257138BD00BF42040020094A51883C
:1018700008B540F2FE339942C4BF00235380FFF7FE
:10188000D3FF28B15388591C51801A44107908BDE0
:10189000FF2008BD420400202DE9F04F544D2A7866
:1018A000042A85B007460C46A8461FD0052A70D0EA
:1018B000032A31D10B282FD10E78A6F13003092B42
:1018C0002AD807224B49A01C01F014FA20BB342E61
:1018D00022DC494A1378013313702278474B1344B2
:1018E000012203F8302C04232B7015E044492046D4
:1018F00001F000FAA0B1E2794248A2F1300101F012
:1019000059F9E3790521303B93FBF1F202EB8202B6
:101910009B1A3D4A29701370002005B0BDE8F08F76
:101920000B2F18D12578A5F13003092BF4D8072205
:101930003049A01C01F0DEF90028EDD1342DEBDC9C
:101940002D4A13780133137022782C4B1344012253
:1019500003F8302CE0E70A2FDED12678A6F1300319
:10196000092BD9D806222949A01C01F0C3F9002867
:10197000D2D1342ED0DC204A1378013BDBB2137075
:1019800021781E4A0A4402F8300C002BC4D10323EC
:10199000AAE7DFF874A01E4C9AF80090FB2505FB1F
:1019A00009F30126E05C039315FB096B3226421C08
:1019B00016FB00B0E25420443A4601F0E7F8039BDE
:1019C0001448E25C013A06FB02B626443B46009608
:1019D000494601F0EFF89AF800305D43635D042B4F
:1019E00084BF00236355042388F8003094E700BFC8
:1019F000400400206E470008230200202D0D002027
:101A0000084700080D470008240200201947000875
:101A100046080020204700080388013310B59BB218
:101A20004EF66024A342038001D8002010BD0B882D
:101A300001330B800023038008889042F5D90B8086
:101A4000012010BDF8B5154604464718BC4201D127
:101A50000020F8BD26462B7832789A4204F1010422
:101A6000F4D12846FEF7BCFB29460246304601F079
:101A700041F90028EAD10120F8BD000010B5C2B03C
:101A800029B91F49024602A801F010F906E0012910
:101A900012D102461B4902A801F008F9044602AA25
:101AA0000146194801F086F8A2B202A9002000F010
:101AB000F9FA204642B010BD022902D1024613496C
:101AC000E1E7032902D102461149DCE7042903D1E9
:101AD000449B10490246D6E7052903D1449B0E4991
:101AE0000246D0E7062903D1449B0C490246CAE7C7
:101AF00000930B491346024602A801F0D7F8CDE740
:101B0000124600081D4600087A46000825460008CF
:101B10003446000843460008524600086146000863
:101B20006C460008F7B52E4D2C782E4674B9089EE9
:101B30000096FFF7A3FF01232B702A4B1C802A4B32
:101B40001C802A4B1C80002003B0F0BD012C14D156
:101B500000F030FBBDF8282023492248FFF75CFF46
:101B60000246FFF761FE00280CBF104642F001005C
:101B70000028E9D002232B70E5E7FFF755FEF8B9FE
:101B800001232B7021E02C88631C2B80FFF76EFE55
:101B90003855FFF749FE04460028F4D12B88F85445
:101BA0001348FEF71DFB099A81B21148FFF74AFF5F
:101BB00048B10C4B34701C800B4B01201C80C3E7D8
:101BC0000A4D0B4FE5E7012333700A4B18780130BB
:101BD000C0B2052818704FF0FF3098BF0020B3E75F
:101BE0001D020020180200201A02002026040020F6
:101BF000250200201E02002030B5244D2B7885B030
:101C0000032B10D8DFE803F002142531032300244E
:101C100002931F4B019300940123224602211D4889
:101C2000FFF780FF08B900202EE002232B70FAE7AF
:101C30006423002402931848154B01930094234613
:101C400022460121FFF76EFF0028ECD02B780133EC
:101C5000ECE74FF47A730293104B0193104B00930F
:101C600000231A4604210F48ECE7642302930E4B2D
:101C700001930E4B009300231A4606210C48FFF7F0
:101C800051FF003018BF012005B030BD20020020F8
:101C9000DA460008874600088E4600083C470008E0
:101CA0009A460008944600086E470008B9460008A6
:101CB000B046000830B5344D2B7885B0052B11D8CF
:101CC000DFE803F00317283B465103230024029367
:101CD0002E4B019300940123224602212C48FFF74A
:101CE00021FF08B9002401E002232B70204605B033
:101CF00030BD6423002402932648244B01930094B2
:101D0000234622460121FFF70DFF0028EAD02B7859
:101D10000133EAE74FF47A7302931F4B01931F4B91
:101D200000931F4800231A460421FFF7FBFE0028FA
:101D3000D8D02B7801332B70D4E7032300240293EF
:101D4000124B019300940123224621461548DAE7FD
:101D500064230293144B0193144B009300231A46FF
:101D600006211348E1E7032300240293114B01935A
:101D700000942346224601210F48FFF7D3FE002896
:101D8000B0D02C700124B1E721020020DA4600080F
:101D9000874600088E4600083C4700089A4600081F
:101DA00094460008F44600086E470008B94600084B
:101DB000B046000804470008FC46000830B5364D20
:101DC0002B7885B0052B11D8DFE803F00317283BEB
:101DD0004652032300240293304B019300940123C5
:101DE000224602212E48FFF79DFE08B9002401E09B
:101DF00002232B70204605B030BD642300240293DB
:101E00002848264B01930094234622460121FFF7E0
:101E100089FE0028EAD02B780133EAE74FF47A7381
:101E200002931E4B0193204B009300231A4604217A
:101E30001E48FFF777FE0028D8D02B7801332B708F
:101E4000D4E70A2300240293144B01930094012346
:101E5000224621461648DAE76423029300240F4BFA
:101E60000193009441F28933012207211148CEE702
:101E70000A2300240293094B01930094234622462F
:101E800001210D48FFF74EFE00B12C700B4B0322D1
:101E90001A700124AEE700BF22020020DA460008D3
:101EA000874600088E460008080000209446000877
:101EB000DD460008E4460008EE4600084004002025
:101EC0002DE9F041394D2B78ADF5047D07460E46DE
:101ED000042B49D8DFE803F031341E5103000024FD
:101EE00004AEFFF7A1FC04F101080746E4B20028A4
:101EF0004AD130553046FEF773F92D4A81B230464B
:101F0000FFF7A0FD002844D02F7001200DF5047DBF
:101F1000BDE8F08100246EB3B6F5FA7F07EB04014B
:101F200024D94FF4FA72012004F5FA74A6F5FA7672
:101F300000F0B8F8A4B2B6B2EDE701232B7013E0BD
:101F40000323002402931B4B019300940B4622466B
:101F500021461948FFF7E6FD012801BF2B78013320
:101F60002B70164B08BF1C700020CFE732460120B3
:101F700000F098F82B780133E0E700F01BF9FFF749
:101F800053FC0028F0D0F5E7FFF770FC30554446CD
:101F9000A7E703232B70094B18780130C0B205283E
:101FA00018704FF0FF3098BF0020AFE71F020020ED
:101FB000D5460008D2460008FC4600081C02002056
:101FC00070B506460C460025A4B1B4F5FA7F06EBC1
:101FD00005010BD94FF4FA72012005F5FA75A4F545
:101FE000FA7400F05FF8ADB2A4B2EDE7224601202A
:101FF00000F058F8002070BD0A480B4B4FF4827C6B
:1020000080E8081000238360C360036143614FF4DC
:102010000072C3610362436283620A238261C36206
:10202000FEF74CBF6C1B002000300140F8B5084F94
:102030000E4615460024AC4201DB2846F8BD311996
:102040004FF6FF7301223846FFF76AFA0134F2E7D0
:10205000C41B002010B5094C094801222146FFF796
:10206000BCFA084B1A88511C1980237806490A2BA0
:102070008B5402BF054B01221A7010BD381100208D
:10208000C41B00202A04002039110020280400204D
:10209000B0F5807F02BF024B01221A70704700BF6B
:1020A0002C0400202DE9FF410024FF2380460F4629
:1020B000154621464FF483623A488DF80A308DF870
:1020C0000B4000F06EFD224640213748374EFEF7A8
:1020D0000FFC03238DF80930A30724D40A240094AD
:1020E00001230DF10B020DF109013046FEF723FF2C
:1020F0000DEB04010094012303AA3046FEF71BFFF9
:10210000009401230DEB04010DF10D023046FEF7A2
:1021100012FF9DF80D309DF80C4044EA03244FF661
:10212000FF739C42D8D1AC1C012240211E48A4B2AE
:10213000FEF7DEFBA2072ED1002240211A48FEF74F
:10214000D7FBB8F1000F2BD090234FF00A08154EA3
:102150008DF809300DF10B0201230DF10901CDF8C5
:1021600000801248FEF7E7FE30462A46394620F83E
:10217000025B00F00BFD23463146CDF800800C4A8F
:102180000A48FEF7D8FE012240210748FEF7B0FBBF
:1021900004B0BDE8F081E31C4FF6FC741C40CBE7B3
:1021A0009123D2E739130020000402406C1B002069
:1021B000391100207FB50026FF23324640215348C5
:1021C0008DF80A300A258DF80B608DF80C608DF8BB
:1021D0000D60FEF78DFB06238DF809300DF10B0223
:1021E00001230DF1090100954948FEF7A4FE0123E2
:1021F00003AA0DEB050100954548FEF79CFE01235F
:102200000DF10D020DEB050100954148FEF793FE1F
:102210009DF80D009DF80C40012244EA0024402165
:102220003A48FEF765FB4FF6FF739C4230D0E30758
:102230002CD5324640213548FEF75AFB02238DF853
:1022400009300DF10B0201230DF109010095304811
:10225000FEF771FE012303AA0DEB050100952C4842
:10226000FEF769FE0DF10D020DEB0501009501234E
:102270002748FEF760FE9DF80D009DF80C400122F6
:1022800044EA002440212148FEF732FB002C3AD0DA
:10229000002240211D481F4DFEF72AFB0A2610236D
:1022A0008DF80930009601230DF10B020DF10901A3
:1022B0001748FEF740FE0DEB0601009623462A461E
:1022C0001348FEF738FE0023012240210F482B550A
:1022D000FEF70EFBFFF790FA2E4678B90546705DC3
:1022E0000135FFF7ADFAABB2A342F8D3094A0A4869
:1022F000214600F05FFC012004B070BD2946204655
:10230000FFF7CAFAF2E72046F6E700BF00040240F2
:102310006C1B002051170020484700087FB500269D
:10232000FF23324640214E488DF80A300A258DF8A9
:102330000B60FEF7DDFA06238DF809300DF10B0274
:1023400001230DF1090100954648FEF7F4FD012334
:1023500003AA0DEB050100954248FEF7ECFD0123B1
:102360000DF10D020DEB050100953E48FEF7E3FD72
:102370009DF80D009DF80C40012244EA0024402104
:102380003748FEF7B5FA4FF6FF739C4230D0E307AB
:102390002CD5324640213248FEF7AAFA02238DF8A6
:1023A00009300DF10B0201230DF1090100952D48B3
:1023B000FEF7C1FD012303AA0DEB05010095294895
:1023C000FEF7B9FD0DF10D020DEB0501009501239E
:1023D0002448FEF7B0FD9DF80D009DF80C40012249
:1023E00044EA002440211E48FEF782FA002C35D032
:1023F000002240211A481C4EFEF77AFA0A251023C3
:102400008DF80930009501230DF10B020DF1090142
:102410001448FEF790FD009523460DEB050132466A
:102420001048FEF788FD331900255D70705D013599
:10243000FFF706FAABB2A342F8D3012240210848C5
:10244000FEF756FA084A0948214600F0B3FB214638
:102450000548FFF7B5FD012004B070BD2046FBE73D
:10246000000402406C1B0020511700205647000852
:102470002DE9F0472A4C2B4FDFF8C880DFF8C890D1
:10248000054600263B889E423CDA00F05FFB14F8CC
:10249000013F184443789B0714D00622414620464A
:1024A00000F028FC88B30C224946204600F022FCAC
:1024B00068B30C221C49204600F01CFC20B91B48C4
:1024C00000F0ECFB0136DDE70F221949204600F051
:1024D00011FCF0B109221749204600F00BFCD0B1E5
:1024E0000B221549204600F005FCB0B10422134927
:1024F000204600F0FFFB82460028E3D1104800F0A0
:10250000CDFB55462846BDE8F0870125FAE70225B0
:10251000F8E70425F6E70325F4E70625F2E700BF10
:10252000381100202A04002076470008854700085B
:1025300096470008A6470008B0470008BC470008B7
:10254000C14700086E4700086847000830B50546D7
:10255000ADF2DC7D40F2D172364901A800F016FBE5
:102560002B68013B052B10D8DFE803F00312154060
:102570000F5BFFF741FB012804D12F4800F08EFBD1
:1025800000232B602D4B00221A800DF2DC7D30BD24
:10259000FFF790FBEFE7294C2388B3F5836F13D245
:1025A0004FF47A7101A8FFF78BFC002806DA218826
:1025B000234800F0FFFA2388013B03E00128E4D11F
:1025C000238801332380E0E74B2101A8FFF778FC43
:1025D0000028ECDB0128D8D121881A4800F0EAFA5B
:1025E00023880133238000232B60CEE7134C2388FC
:1025F000B3F5036F06D84FF4FA7201A90120FFF773
:1026000051FDDDE74B2201A90120FFF74BFD218899
:102610000D48013189B2218000F0CCFA00232B60F3
:10262000D0E7FFF7CBFB0028AFD0084800F036FB1F
:10263000D9E700BF403E0008E44700082E04002010
:10264000F84700080C4800082448000836480008ED
:1026500030B595B03022002108A800F0A2FA002180
:10266000142203A800F09DFA00241C4B01941A6C5C
:1026700042F080521A641B6C194A03F08053019394
:10268000019B0294136823F4404343F40043136016
:1026900013680F9403F440430293029B01230B93AE
:1026A00010230C9310934FF4A87311930423022565
:1026B000129308A80723139308950E95FEF72AF99D
:1026C0000F23039329464FF4805303A804950594E0
:1026D00006930794FEF7CEFA15B030BD00380240DD
:1026E00000700040F0B58BB000240094FDF77CFF33
:1026F000FFF7AEFF142221460DEB020000F051FA65
:102700004F4B01941A6B4F484F4D42F004021A632D
:102710001A6B02F004020192019A02941A6B42F0C1
:1027200080021A631A6B02F080020292029A0394EA
:102730001A6B42F001021A631A6B02F00102039253
:10274000039A04941A6B42F002021A631B6B03F0A3
:102750000203224604934021049BFEF7C9F84FF47C
:102760000053059305A9394B394806930794FDF7A3
:10277000E3FF4FF48073059305A9364B3648069363
:1027800007940126FDF7D8FF402305A92D4805939E
:10279000079408940696FDF7CFFF2146224617209E
:1027A000FDF760FF1720FDF791FFFFF725FC2B4A8F
:1027B000AC604FF4E13385E80C0028460C236B61D4
:1027C000EC602C61AC61EC61FEF77CFE3246244982
:1027D000244C2846FEF701FF2348244D00F05EFA02
:1027E000234800F05BFA2F4623783BB10098FFF7AF
:1027F0003FFE204A00900023138023702B783BB1CA
:10280000009B052B18D1FFF789FD00233B7006E0E4
:102810004FF480711048FEF765F80028F0D0684644
:10282000FFF794FE002EDFD0FEF7FEFF0028DBD07E
:10283000062300930026D7E7FFF7BCFCE5E700BFBF
:102840000038024000040240C41B00200000211098
:102850000008024000001110000002400044004047
:102860003811002028040020C74700082C0400204D
:10287000D14700082A04002013B5114B002400940E
:102880005A6C42F480425A645A6C02F480420092BC
:10289000009A01941A6C42F080521A641B6C03F087
:1028A000805301930720019BFDF7CAFE2246214673
:1028B0000520FDF7D7FE0520FDF708FF02B010BD8B
:1028C0000038024010B5044688B01422002103A845
:1028D00000F067F92268184B9A422AD103F5843335
:1028E000002401945A6C154842F480525A645A6C80
:1028F00002F480520192019A02941A6B42F0010292
:102900001A631B6B03F001030293029BF0230393F2
:10291000022304930323069303A905230793FDF7DA
:102920000BFF232022462146FDF79CFE2320FDF7C6
:10293000CDFE08B010BD00BF0030014000000240D5
:1029400010B5044688B01422002103A800F029F92C
:102950002268174B9A4228D103F5FA3300240194D8
:102960001A6C144842F400321A641A6C02F40032F1
:102970000192019A02941A6B42F001021A631B6BD6
:1029800003F001030293029B0C230393022304939D
:1029900003A907230793FDF7CFFE262022462146F1
:1029A000FDF760FE2620FDF791FE08B010BD00BFC8
:1029B00000440040000002407047FEE7FEE7FEE7EB
:1029C000FEE7704770477047FDF728BE70474FF429
:1029D0008070FDF793BF00000148FEF79DBB00BF6C
:1029E0006C1B00200148FEF75FBE00BFC41B002027
:1029F00070B50E4615460C46A31B9D4201DC2846C9
:102A000070BDAFF3008004F8010BF5E708B50A4B81
:102A10001968024609B909491960186869460244EB
:102A20008A4206D900F068F80C2303604FF0FF30AB
:102A300008BD1A6008BD00BF30040020081C00203B
:102A40004FF0FF3070474FF400534B600020704749
:102A500001207047002070470F49D1F8883043F4B7
:102A60007003C1F888300D4B1A68002042F0010253
:102A70001A6098601A6822F0847222F480321A6018
:102A8000074A5A601A6822F480221A60D8604FF010
:102A900000638B60704700BF00ED00E0003802402B
:102AA00010300024DFF834D0002103E00C4B5B58D9
:102AB000435004310B480C4B42189A42F6D30B4A50
:102AC00002E0002342F8043B094B9A42F9D3FFF796
:102AD000C3FF00F017F8FFF705FE704700800120E4
:102AE000284A000800000020FC010020FC01002012
:102AF000081C0020FEE70000014B1868704700BF6B
:102B00002C00002070B50D4E0D4CA41BA410002508
:102B1000A54209D10B4E0C4C01F086F9A41BA41060
:102B20000025A54205D170BD56F8253098470135DE
:102B3000EEE756F8253098470135F2E7204A0008BD
:102B4000204A0008204A0008244A0008044B054A8D
:102B50001B681B6A002B08BF1346D3F8EC007047B4
:102B60002C0000209000002082B001B901A942B1E0
:102B70004BB113780B601278101C18BF012002B003
:102B800070471046FBE76FF00100F8E710B5431EF1
:102B90000A44914200D110BD11F8014B03F8014FD6
:102BA000F7E702440346934200D1704703F8011B44
:102BB000F9E700000FB40A4B13B51C6824B1A369F0
:102BC00013B9204600F068FA05AB049AA168019396
:102BD000204600F075FD02B0BDE8104004B070471B
:102BE0002C00002070B50E46054618B183690BB95C
:102BF00000F052FAAB69AC6813B9284600F04CFA01
:102C0000234B9C4217D16C68A3891B071DD52369F0
:102C1000DBB1013EA36816F8011F013BA360E9B9CF
:102C2000002B2EDA22460A21284600F075F80130E2
:102C300011D00A2070BD174B9C4201D1AC68E3E76C
:102C4000154B9C4208BFEC68DEE72146284600F0A1
:102C5000C3F80028DDD04FF0FF3070BD002B04DA40
:102C6000A269934206DB0A2904D023685A1C226019
:102C70001970CFE72246284600F04EF80130C9D13E
:102C8000E9E723680A205A1C2260187070BD00BF53
:102C9000A4490008C449000884490008024B0146C1
:102CA0001868FFF79FBF00BF2C0000200EB400B5CE
:102CB0009CB04FF402711DABADF814100290069059
:102CC0006FF000410A48049107914FF6FF7153F8E5
:102CD000042BADF816100068019302A900F0D2FB96
:102CE000029B00221A701CB05DF804EB03B0704721
:102CF0002C00002010B56AB10139841810F8013B8E
:102D000011F8012F934203D1A04201D0002BF5D13D
:102D1000981A10BD104610BDF8B50E46144605466B
:102D200018B183690BB900F0B7F9214B9C422AD145
:102D30006C68A369A360A3891A072ED5236963B3BE
:102D400023692068C01A6369F6B29842374604DBEB
:102D50002146284600F036F928BBA368013BA36052
:102D600023685A1C22601E7063690130984204D0A7
:102D7000A389DB0719D50A2E17D12146284600F072
:102D800021F990B10FE00B4B9C4201D1AC68D0E728
:102D9000094B9C4208BFEC68CBE72146284600F06F
:102DA0001BF80028CCD04FF0FF373846F8BD00BFE5
:102DB000A4490008C44900088449000849B1FF2A11
:102DC00085BF8A2303600A704FF0FF3098BF01204F
:102DD0007047084670470000324B70B51D680646C4
:102DE0000C4625B1AB6913B9284600F055F92E4BB6
:102DF0009C420FD16C68B4F90C309AB215072CD4F0
:102E0000D00611D40922326043F04003A3814FF071
:102E1000FF3070BD254B9C4201D1AC68EBE7244BE1
:102E20009C4208BFEC68E6E7510712D5616B41B1DF
:102E300004F14403994202D0304600F01BFA00230B
:102E40006363A38923F02403A381002363602369C0
:102E50002360A38943F00803A38123694BB9A389A5
:102E600003F42073B3F5007F03D02146304600F011
:102E7000C1F9A28912F001030CD00023A360636999
:102E80005B42A361236953B9B4F90C3013F080009D
:102E9000BAD170BD920758BF6369A360F2E7002002
:102EA000F7E700BF2C000020A4490008C44900082F
:102EB000844900088A892DE9F041054610070C462F
:102EC0005AD44B68002B05DC0B6C002B02DC002075
:102ED000BDE8F081E66A002EF9D0002312F480529A
:102EE0002F682B6033D0606DA3895A0705D56368BE
:102EF000C01A636B0BB1236CC01A00230246E66A4A
:102F0000216A2846B047431CA38906D129681D2998
:102F10004BD82B4ACA40D60747D500226260D90455
:102F20002269226004D5421C01D12B6803B9606577
:102F3000616B2F600029CAD004F14403994202D08A
:102F4000284600F097F900206063BDE8F081216A0F
:102F500001232846B047411CC6D12B68002BC3D0A3
:102F60001D2B01D0162B01D12F60B0E7A38943F0B0
:102F70004003A381BDE8F0810F69002FA7D093071C
:102F80000E6808BF4B690F6018BF0023A6EB070847
:102F90008B60B8F1000F9ADD43463A46216AA66A73
:102FA0002846B047002807DCA38943F04003A381EB
:102FB0004FF0FF30BDE8F0810744A8EB0008E8E7D8
:102FC0000100402038B50B6905460C46DBB118B14D
:102FD00083690BB900F060F80C4B9C4209D16C6816
:102FE000B4F90C307BB121462846BDE83840FFF7E4
:102FF00061BF074B9C4201D1AC68F1E7054B9C4295
:1030000008BFEC68ECE7002038BD00BFA449000809
:10301000C449000884490008014900F0A9B800BF6C
:10302000C52F0008002310B5044603604360836089
:1030300081814366C281036143618361194608222D
:103040005C30FFF7AEFD054B6362054BA362054B99
:10305000E362054B2462236310BD00BF393C0008C6
:103060005B3C0008933C0008B73C000870B54A1E62
:10307000682555430E4605F1740100F049F90446F0
:1030800040B1002180E842000C30A06005F16802E8
:10309000FFF787FD204670BD836910B5044633BB3A
:1030A0008364C3640365124B124A1B6882629842B0
:1030B00004BF0123836100F01FF86060204600F028
:1030C0001BF8A060204600F017F80022E060042101
:1030D0006068FFF7A7FF01220921A068FFF7A2FFA0
:1030E00002221221E068FFF79DFF0123A36110BDBA
:1030F0007448000819300008F8B51C4B1E68B36905
:10310000074613B93046FFF7C7FF4836B4687368FF
:10311000013B03D5336833B13668F7E7B4F90C5097
:103120006DB16834F4E704213846FFF79FFF306043
:103130000028F1D10C233B6004462046F8BD4FF631
:10314000FF73E3810123A38165662560A560656047
:1031500025616561A5610822294604F15C00FFF73D
:1031600020FD6563A563A564E564E6E7744800088F
:103170002DE9F8438046894600F14804002614B939
:103180003046BDE8F883A5686768013F01D524682B
:10319000F5E7AB89012B07D9B5F90E30013303D020
:1031A00029464046C84706436835EEE770B50E46E7
:1031B000B1F90E10002990B014461D4607DA00231D
:1031C0002B60B3891A0610D44FF480630EE001AA75
:1031D00000F098FD0028F2DB029A02F47042A2F59A
:1031E00000535A425A412A60EEE7402300202360F0
:1031F00010B070BD8B8973B59D0706460C4607D588
:1032000004F14703236023610123636102B070BDB1
:1032100001AB6A46FFF7CAFF00990546304600F049
:1032200077F848B9B4F90C309A05EFD423F00303CA
:1032300043F00203A381E3E70D4BB362A38920604F
:1032400043F08003A381009B6361019B20615BB11C
:10325000B4F90E10304600F067FD28B1A38923F0C1
:10326000030343F00103A381A3891D43A581CDE797
:103270001930000838B50546002945D051F8043CFE
:103280000C1F002BB8BFE41800F08AFD1F4A13681A
:10329000104633B9636014602846BDE8384000F03A
:1032A00080BDA3420CD921686218934204BF1A68FA
:1032B0005B68636004BF521822600460ECE7134649
:1032C0005A680AB1A242FAD919685818A0420BD11B
:1032D00020680144581882421960DDD11068526894
:1032E0005A6001441960D7E702D90C232B60D3E759
:1032F000206821188A4204BF11685268626004BFC6
:10330000091821605C60C7E738BD00BF34040020A5
:1033100070B5CD1C25F0030508350C2D38BF0C25E4
:10332000002D064601DBA94203D90C23336000209F
:1033300070BD00F035FD234A1468214691B9224C36
:1033400023681BB9304600F067FC206029463046F0
:1033500000F062FC431C26D10C233360304600F0A1
:1033600020FDE4E70B685B1B1AD40B2B0FD90B6015
:10337000CD50CC18304600F014FD04F10B00231D95
:1033800020F00700C31A1BD05A42E25070BD8C4295
:103390000DBF63684B686360136018BF0C46E9E7B4
:1033A0000C464968CAE7C41C24F00304A04205D0B7
:1033B000211A304600F030FC0130CDD02560D9E72D
:1033C00070BD00BF34040020380400202DE9F04710
:1033D0008E689E4282460C469146984635D88A8928
:1033E00012F4906F31D0256809696F1A656902235C
:1033F00005EB450595FBF3F508F101033B449D42C0
:1034000038BF1D46530531D52946FFF781FF0646D3
:1034100050B90C23CAF80030A38943F04003A381BC
:103420004FF0FF30BDE8F0873A462169FFF7AEFB69
:10343000A38923F4906343F08003A381266165612F
:103440003E44ED1B2660A5604646464528BF4646DD
:1034500032464946206800F089FCA3689B1BA360A4
:1034600023681E4426600020BDE8F0872A4600F04D
:1034700099FC06460028E1D121695046FFF7FAFE83
:10348000C7E700002DE9F04F9DB0804603938B897C
:103490001C060D4616460FD50B696BB94021FFF788
:1034A00037FF2860286128B90C23C8F800304FF096
:1034B000FF30C5E040236B610023099320238DF882
:1034C000293030238DF82A304FF0010B37463C4627
:1034D00014F8013B002B3CD1B7EB060A0BD0534646
:1034E000324629464046FFF771FF013000F0A380C5
:1034F000099B534409933B78002B00F09C800023E8
:103500004FF0FF3204930793059206938DF85330E2
:103510001A93052221785048FCF76AFE671C049B29
:10352000D8B9D90644BF20228DF853201A0744BFCA
:103530002B228DF8532022782A2A16D0079A0021B0
:103540000A20274601343B78303B092B51D9C9B1B9
:1035500011E0252BC0D02746B9E73F4A801A0BFA65
:1035600000F0184304903C46D3E7039A111D1268FB
:103570000391002A01DB079204E0524243F0020368
:10358000079204933B782E2B0ED17B782A2B07F1E0
:10359000010132D1039B1A1D1B680392002BB8BF97
:1035A0004FF0FF33023705932C4C39780322204625
:1035B000FCF71EFE38B14023001B03FA00F0049B09
:1035C000034304930137397825488DF828100622E3
:1035D0007E1CFCF70DFE002835D0224BFBB9039B67
:1035E000073323F0070308330393099B4B440993E4
:1035F0006CE700FB02320121A3E700230593184684
:103600000A240F4601313A78303A092A03D9002BAF
:10361000CAD00590C8E704FB00200123F1E703AB03
:1036200000932A46104B04A94046AFF30080B0F146
:10363000FF3F8146D9D1AB895B063FF538AF09988A
:103640001DB0BDE8F08F03AB00932A46064B04A9DA
:10365000404600F0C1F9EAE7E4490008EA490008F9
:10366000EE49000800000000CD3300089368013BDC
:10367000002B10B4936009DA9469A34202DBCBB249
:103680000A2B03D15DF8044BFFF746BB1368581CA7
:1036900010601970C8B25DF8044B7047F8B5064663
:1036A0000F461446D518AC4201D1002007E03A4637
:1036B00014F8011B3046FFF7D9FF431CF3D1F8BDC6
:1036C0002DE9F04F9DB00C4617460393064618B1FE
:1036D00083690BB9FFF7E0FC7C4B9C4257D17468BF
:1036E000A38918075DD52369002B5AD000230993BD
:1036F00020238DF8293030238DF82A304FF0010B2C
:10370000B846454615F8013B002B55D1B8EB070AE2
:103710000BD053463A4621463046FFF7BFFF0130F3
:1037200000F0C480099B5344099398F80030002BA3
:1037300000F0BC8000234FF0FF3204930793059202
:1037400006938DF853301A93052229786048FCF7C8
:103750004FFD05F10108049B002831D1D90644BF73
:1037600020228DF853201A0744BF2B228DF85320B6
:103770002A782A2A2CD0079A00210A20A846013547
:1037800098F80030303B092B6DD971B326E0514BCE
:103790009C4201D1B468A3E74F4B9C4208BFF46838
:1037A0009EE721463046FFF717FB00289ED04FF0DA
:1037B000FF301DB0BDE8F08F252BA7D0A846A0E7AD
:1037C000434A801A0BFA00F0184304904546BBE7C1
:1037D000039A111D12680391002A01DB079204E08D
:1037E000524243F002030792049398F800302E2BC4
:1037F00010D198F801302A2B08F1010137D1039B31
:103800001A1D1B680392002BB8BF4FF0FF3308F15D
:1038100002080593314D98F8001003222846FCF762
:10382000E7FC40B14023401B03FA00F0049B034334
:10383000049308F1010898F8001029488DF8281021
:10384000062208F10107FCF7D3FC002834D0254BF1
:1038500003BB039B073323F0070308330393099B40
:103860004B4409934CE700FB0232012186E7002319
:10387000059318460A258846013198F80020303A09
:10388000092A03D9002BC5D00590C3E705FB00200A
:103890000123F0E703AB00932246134B04A9304603
:1038A000AFF30080B0F1FF3F8146D8D1A3895B061A
:1038B0003FF57DAF09987CE703AB009322460A4BA6
:1038C00004A9304600F088F8ECE700BFA4490008DE
:1038D000E4490008C449000884490008EA4900088E
:1038E000EE490008000000009D3600082DE9F04771
:1038F00091461F468A680B69DDF820809342B8BF65
:103900001346C9F8003091F8432006460C4612B120
:103910000133C9F800302368990642BFD9F8003056
:103920000233C9F80030256815F0060507D104F107
:10393000190AE368D9F800209B1A9D4229DB94F804
:1039400043302268003318BF012392062ED404F1BD
:10395000430239463046C047013021D02368E5682C
:10396000D9F8002003F00603042B08BFAD1AA368A2
:1039700022690CBF25EAE57500259342C4BF9B1A56
:10398000ED184FF000091A344D451BD10020BDE859
:10399000F0870123524639463046C047013003D1F3
:1039A0004FF0FF30BDE8F0870135C2E7E1185A1C3F
:1039B000302081F84300224494F8451082F84310E7
:1039C0000233C4E70123224639463046C04701305E
:1039D000E6D009F10109D7E72DE9F04317460A7E41
:1039E00085B06E2A984606460C460C9B01F1430EA4
:1039F00000F0BC801AD8632A2ED00AD8002A00F022
:103A0000C880582A00F08A8004F1420584F84220D8
:103A10002AE0642A01D0692AF6D121681A6811F0D7
:103A2000800F23D0111D1960136827E0732A00F05E
:103A3000B48008D86F2A2AD0702AE5D10A6842F0EB
:103A400020020A6003E0752A21D0782ADCD178228E
:103A500084F845206E4964E01A6801F14205111DA1
:103A60001960136884F842300123A3E011F0400F7D
:103A700002F104011960D7D0B2F90030002B03DA4B
:103A80002D225B4284F8432062490A2217E0206815
:103A9000196810F0800F03D0081D18600B6806E04D
:103AA00010F0400F01F104001860F7D00B8859495D
:103AB0006F2A14BF0A220822002084F84300656898
:103AC000A560002DC0F29C80206820F004002060DA
:103AD000002B3FD1002D40F095807546082A0BD170
:103AE0002368DA0708D5236962689A42DEBF30236B
:103AF00005F8013C05F1FF35AEEB05032361CDF878
:103B000000803B4603AA21463046FFF7EFFE013016
:103B100055D14FF0FF3005B0BDE8F08381F8452066
:103B20003C492268186812F0800F00F104051D60FE
:103B300001D0036802E05506FBD50388D00744BFD7
:103B400042F0200222601BB9226822F0200222608B
:103B50001022B1E77546B3FBF2F002FB1033CB5CE9
:103B600005F8013D03460028F5D1B7E708681A6853
:103B7000496910F0800F04D0101D18601368196097
:103B800007E010F0400F02F1040018601368F6D04F
:103B90001980002323617546B1E71A68111D196069
:103BA0001568626800212846FCF722FB08B1401B1B
:103BB000606063682361002384F843309FE72369D2
:103BC0002A4639463046C0470130A2D023689B07B9
:103BD00007D5002504F11909E368039A9B1A9D4251
:103BE00005DBE068039B9842B8BF184693E70123C2
:103BF0004A4639463046C04701308AD00135EBE7A6
:103C0000002BA7D10B7884F8423004F1420565E718
:103C1000064A0008F549000838B5064C0023054659
:103C200008462360FEF7F2FE431C02D1236803B16D
:103C30002B6038BD041C002010B50C46B1F90E10E5
:103C400000F0D6F80028ABBF636DA3891B1823F4DE
:103C50008053ACBF6365A38110BD2DE9F0411F46C1
:103C60008B89DB0505460C46164605D50223002246
:103C7000B1F90E1000F068F8A389B4F90E1023F41E
:103C80008053A38132463B462846BDE8F04100F010
:103C900017B810B50C46B1F90E1000F055F8431CDA
:103CA000A38915BF606523F4805343F48053A38137
:103CB00018BFA38110BDB1F90E1000F013B80000B9
:103CC00038B5074C054608461146002222601A46C0
:103CD000FEF7ACF9431C02D1236803B12B6038BD59
:103CE000041C002038B5064C002305460846236016
:103CF000FEF7A6FE431C02D1236803B12B6038BD3A
:103D0000041C002038B5074C002305460846114620
:103D10002360FEF798FE431C02D1236803B12B6099
:103D200038BD00BF041C002038B5064C00230546F2
:103D300008462360FEF78CFE431C02D1236803B1C2
:103D40002B6038BD041C002038B5074C05460846DA
:103D50001146002222601A46FEF77CFE431C02D167
:103D6000236803B12B6038BD041C0020884210B5C5
:103D700001EB020303D8421E99420CD110BD9842B8
:103D8000F9D28118D21AD34200D110BD13F8014DD7
:103D900001F8014DF7E711F8014B02F8014FEBE78D
:103DA00070477047F8B5074614460E4621B91146CC
:103DB000BDE8F840FFF7ACBA22B9FFF75BFA254639
:103DC0002846F8BD00F026F884420FD9214638462F
:103DD000FFF79EFA05460028F2D031462246FEF74C
:103DE000D5FE31463846FFF745FAE9E73546E7E7BD
:103DF00038B5074C054608461146002222601A468F
:103E0000FEF7F6FD431C02D1236803B12B6038BDD9
:103E1000041C002051F8040C0028A0F10400BCBFD1
:103E20000B58C01870470000F8B500BFF8BC08BCBC
:103E30009E467047F8B500BFF8BC08BC9E46704768
:103E40003031323334353637383930313233343536
:103E50003637383930313233343536373839303116
:103E6000323334353637383930313233343536370A
:103E700038393031323334353637383930313233FE
:103E800034353637383930313233343536373839DE
:103E900030313233343536373839303132333435E6
:103EA00036373839303132333435363738393031C6
:103EB00032333435363738393031323334353637BA
:103EC00038393031323334353637383930313233AE
:103ED000343536373839303132333435363738398E
:103EE0003031323334353637383930313233343596
:103EF0003637383930313233343536373839303176
:103F00003233343536373839303132333435363769
:103F1000383930313233343536373839303132335D
:103F2000343536373839303132333435363738393D
:103F30003031323334353637383930313233343545
:103F40003637383930313233343536373839303125
:103F50003233343536373839303132333435363719
:103F6000383930313233343536373839303132330D
:103F700034353637383930313233343536373839ED
:103F800030313233343536373839303132333435F5
:103F900036373839303132333435363738393031D5
:103FA00032333435363738393031323334353637C9
:103FB00038393031323334353637383930313233BD
:103FC000343536373839303132333435363738399D
:103FD00030313233343536373839303132333435A5
:103FE0003637383930313233343536373839303185
:103FF0003233343536373839303132333435363779
:10400000383930313233343536373839303132336C
:10401000343536373839303132333435363738394C
:104020003031323334353637383930313233343554
:104030003637383930313233343536373839303134
:104040003233343536373839303132333435363728
:10405000383930313233343536373839303132331C
:1040600034353637383930313233343536373839FC
:104070003031323334353637383930313233343504
:1040800036373839303132333435363738393031E4
:1040900032333435363738393031323334353637D8
:1040A00038393031323334353637383930313233CC
:1040B00034353637383930313233343536373839AC
:1040C00030313233343536373839303132333435B4
:1040D0003637383930313233343536373839303194
:1040E0003233343536373839303132333435363788
:1040F000383930313233343536373839303132337C
:10410000343536373839303132333435363738395B
:104110003031323334353637383930313233343563
:104120003637383930313233343536373839303143
:104130003233343536373839303132333435363737
:10414000383930313233343536373839303132332B
:10415000343536373839303132333435363738390B
:104160003031323334353637383930313233343513
:1041700036373839303132333435363738393031F3
:1041800032333435363738393031323334353637E7
:1041900038393031323334353637383930313233DB
:1041A00034353637383930313233343536373839BB
:1041B00030313233343536373839303132333435C3
:1041C00036373839303132333435363738393031A3
:1041D0003233343536373839303132333435363797
:1041E000383930313233343536373839303132338B
:1041F000343536373839303132333435363738396B
:104200003031323334353637383930313233343572
:104210003637383930313233343536373839303152
:104220003233343536373839303132333435363746
:10423000383930313233343536373839303132333A
:10424000343536373839303132333435363738391A
:104250003031323334353637383930313233343522
:104260003637383930313233343536373839303102
:1042700032333435363738393031323334353637F6
:1042800038393031323334353637383930313233EA
:1042900034353637383930313233343536373839CA
:1042A00030313233343536373839303132333435D2
:1042B00036373839303132333435363738393031B2
:1042C00032333435363738393031323334353637A6
:1042D000383930313233343536373839303132339A
:1042E000343536373839303132333435363738397A
:1042F0003031323334353637383930313233343582
:104300003637383930313233343536373839303161
:104310003233343536373839303132333435363755
:104320003839303132333435363738393031323349
:104330003435363738393031323334353637383929
:104340003031323334353637383930313233343531
:104350003637383930313233343536373839303111
:104360003233343536373839303132333435363705
:1043700038393031323334353637383930313233F9
:1043800034353637383930313233343536373839D9
:1043900030313233343536373839303132333435E1
:1043A00036373839303132333435363738393031C1
:1043B00032333435363738393031323334353637B5
:1043C00038393031323334353637383930313233A9
:1043D0003435363738393031323334353637383989
:1043E0003031323334353637383930313233343591
:1043F0003637383930313233343536373839303171
:104400003233343536373839303132333435363764
:104410003839303132333435363738393031323358
:104420003435363738393031323334353637383938
:104430003031323334353637383930313233343540
:104440003637383930313233343536373839303120
:104450003233343536373839303132333435363714
:104460003839303132333435363738393031323308
:1044700034353637383930313233343536373839E8
:1044800030313233343536373839303132333435F0
:1044900036373839303132333435363738393031D0
:1044A00032333435363738393031323334353637C4
:1044B00038393031323334353637383930313233B8
:1044C0003435363738393031323334353637383998
:1044D00030313233343536373839303132333435A0
:1044E0003637383930313233343536373839303180
:1044F0003233343536373839303132333435363774
:104500003839303132333435363738393031323367
:104510003435363738393031323334353637383947
:10452000303132333435363738393031323334354F
:10453000363738393031323334353637383930312F
:104540003233343536373839303132333435363723
:104550003839303132333435363738393031323317
:1045600034353637383930313233343536373839F7
:1045700030313233343536373839303132333435FF
:1045800036373839303132333435363738393031DF
:1045900032333435363738393031323334353637D3
:1045A00038393031323334353637383930313233C7
:1045B00034353637383930313233343536373839A7
:1045C00030313233343536373839303132333435AF
:1045D000363738393031323334353637383930318F
:1045E0003233343536373839303132333435363783
:1045F0003839303132333435363738393031323377
:104600003435363738393031323334353637383956
:10461000300041542B25733D25640D0A0041542B75
:1046200025730D0A0041542B25735F4355523D25D8
:10463000640D0A0041542B25735F4445463D2564B3
:104640000D0A0041542B25735F4355523D25730DD0
:104650000A0041542B25735F4445463D25730D0ADE
:104660000041542B25733D25730D0A0041542B2521
:10467000733D25642C25640D0A0073656E645B250B
:10468000645D25730D0A0043574D4F444500435761
:104690004C41500043574A415000225465646479AC
:1046A0005F4150222C2231323334353637382200E4
:1046B00043495053544152540022544350222C2217
:1046C0003139322E3136382E302E32222C333030E2
:1046D00030003E200053454E44204F4B004349508C
:1046E0004D55580043495053455256455200434991
:1046F000465352004349504D4F444500434950539F
:10470000454E44000D0A3E002B49504400736F6330
:104710006B2025645B25635D00434C4F534544008B
:10472000736F636B5B25645D2C446174615B25640E
:104730005D4C5B25645D3A25730D0A005749464977
:1047400020474F542049500052585B25645D3A5B26
:1047500025735D0D0A00525820646174615B256405
:104760005D3A2573200D0A005452414E5320434FA9
:104770004E4E454354005452414E53204C4F4F46E9
:104780004241434B006E6F7420737570706F72748A
:10479000656421210D0053454E44205452414E532F
:1047A00020444154410053454E442044415441006B
:1047B000536572766572206F70656E0065786974F6
:1047C00000657869740D0048656C6C6F2021210DBF
:1047D0000057697A46693336302052656164792022
:1047E00021210D00436F6E6E656374205375636302
:1047F0006573732021210D005350492053454E44C9
:10480000204661696C5B25645D0D0A0053504920A8
:1048100053454E4420434F4D504C4554455B256411
:104820005D0D0A005350492053454E44204F4B5BC9
:1048300025645D0D0A00436F6E6E65637420616EC2
:104840006420536572766572204F70656E205375D3
:1048500063636573732021210D00000000000000D8
:10486000000001020304060708090000000001021D
:1048700003040000300000204300504F534958000B
:104880002E0000202020202020202020282828283A
:104890002820202020202020202020202020202010
:1048A0002020208810101010101010101010101060
:1048B0001010100404040404040404040410101070
:1048C000101010104141414141410101010101011C
:1048D00001010101010101010101010101011010AA
:1048E00010101010424242424242020202020202F0
:1048F000020202020202020202020202020210107C
:104900001010200000000000000000000000000067
:104910000000000000000000000000000000000097
:104920000000000000000000000000000000000087
:104930000000000000000000000000000000000077
:104940000000000000000000000000000000000067
:104950000000000000000000000000000000000057
:104960000000000000000000000000000000000047
:104970000000000000000000000000000000000037
:104980000000000000000000000000000000000027
:104990000000000000000000000000000000000017
:1049A0000000000000000000000000000000000007
:1049B00000000000000000000000000000000000F7
:1049C00000000000000000000000000000000000E7
:1049D00000000000000000000000000000000000D7
:1049E00000000000232D302B2000686C4C00656611
:1049F0006745464700303132333435363738394130
:104A00004243444546003031323334353637383945
:084A1000616263646566000049
:084A1800A8B8FF7F01000000B7
:044A2000C5010008C4
:044A2400A1010008E4
:104A280001000000100000002254656464795F41B1
:104A380050222C22313233343536373822000000E8
:104A480000000000000000000024F40030000020F6
:104A580000000000A4490008C4490008844900086F
:104A6800000000000000000000000000000000003E
:104A7800000000000000000000000000000000002E
:104A8800000000000000000000000000000000001E
:104A9800000000000000000000000000000000000E
:104AA80000000000000000000000000000000000FE
:104AB80043000000000000000000000000000000AB
:104AC80000000000000000000000000000000000DE
:104AD800430000000000000000000000000000008B
:104AE80000000000000000000000000000000000BE
:104AF800430000000000000000000000000000006B
:104B0800000000000000000000000000000000009D
:104B1800430000000000000000000000000000004A
:104B2800000000000000000000000000000000007D
:104B3800430000000000000000000000000000002A
:104B4800000000000000000000000000000000005D
:104B5800430000000000000000000000000000000A
:104B6800000000000000000000000000000000003D
:104B780043000000000000000000000000000000EA
:104B8800000000000000000000000000000000001D
:104B9800BD2D0008692B00080000000082480008AD
:104BA800804800086747000867470008674700080B
:104BB8006747000867470008674700086747000815
:104BC8006747000867470008FFFFFFFFFFFFFFFF79
:104BD800FFFFFFFFFFFF0000010041534349490069
:104BE80000000000000000000000000000000000BD
:104BF8000000000000000000000041534349490044
:104C0800000000000000000000000000000000009C
:0C4C180000000000000000000000000090
:0400000508002AA520
:00000001FF
